:100000000BC023C022C021C020C01FC01EC01DC005
:100010001CC01BC01AC019C011241FBECFEDCDBF1C
:1000200010E0A0E6B0E0E4E3F3E003C0C895319649
:100030000D92A636B107D1F710E0A6E6B0E001C0F8
:100040001D92A736B107E1F708C1DACFDA9AD29A42
:10005000D89AD09889E1809366000895CF93DF9372
:10006000F92FE82F82E083BF12BEC89B05C082B77C
:100070008B3488F4C899FBCF82E083BF12BEC89945
:1000800005C082B7833B68F4C89BFBCF13BE82B721
:100090008A3750F406C013BE85E890E053C013BE03
:1000A0004FC083E890E04EC039B381E090E038273C
:1000B000317022E023BF12BEA0E0D92FC82FB8E0D4
:1000C0008081880F808389B399278C279D27817031
:1000D0009070432F55278417950771F461E070E005
:1000E00082B78A37E0F689B39927862797278170E8
:1000F000907084179507A1F339B33C27317013BE74
:1001000082B7893170F282B7883428F4C89B03C063
:1001100080818160808382B7893440F082B78A37DA
:1001200028F4C89903C080818160808323BF12BEF8
:10013000B15031F63196AF5FAC3008F4C0CFB3BFE9
:100140008A2F9927DF91CF910895F92FE82F6D30ED
:100150003CF084E090E0089583BF83E090E0089550
:1001600092E093BF12BE82B7823D18F4C899FBCFCC
:10017000F8CF82E083BF12BEDA9882B78639E8F3FF
:1001800072E0408157E050FF13C0DA9A73BF12BE8D
:1001900047FF03C020E630E002C020E330E082B732
:1001A00099272817390798F089B38823A9F2F7CF40
:1001B000DA9873BF12BE47FF03C020E330E002C0ED
:1001C00020E630E082B7992728173907D8F7440F7F
:1001D0005150C8F631966150A1F6DA9A82E083BF99
:1001E00062BF82B7833DE8F313BE81E090E00895DB
:1001F0003FEFA0E0F92FE82F772767FD70951616DF
:1002000017063CF550E8B08127E0852F8B2369F075
:1002100037FF02C041E001C04CE1832F9927880FCE
:10022000991F382F3160342709C0482F37FD4DE121
:10023000832F9927880F991F342F382721505695DF
:1002400027FFE3CFAF5F31968A2F9927861797074D
:10025000CCF23095832F99270895CDECD0E0DEBF06
:10026000CDBFAC2FBD2F1D96E0E6F0E086E00190FB
:100270000D928150E1F7EADE78948C2F9D2F019644
:10028000EDDE87FDFACF89818D38B9F78A818F300D
:10029000A1F78B8199278132910561F00C2F1D2FD9
:1002A000035F1F4F8497C1F183E98E8781E08F87B9
:1002B000888B29C092E9F92EFE8680EC8F87188AF8
:1002C000198A0C2F1D2F035F1F4F65E0912F802F80
:1002D0008FDF8A8B66E0912F802F37DFFE8681EEDD
:1002E0008F8781E0F82EF88A83E0898B65E0912F73
:1002F000802F7EDF8A8B66E0912F802F26DF83E9B7
:100300008E87FF86F88A80E8898B65E0912F802FA1
:100310006FDF8A8B66E00AC084E98E871F86188AA1
:1003200064E0912F802F64DF898B65E0912F802F0F
:040330000CDFA3CF6C
:060334008D9301000000A2
:00000001FF
